:400000000010002011000000B5030000B503000008B500F081FA00F0CFF90000F7B572B680220021D200554800F0EDFF802200215348D20000F0E7FF0023191C514C1859E1
:400040001034C2B20192071CFF2297434A00A4180022019ED5B2AE4209D05500665D6519B446BC446D78664635700132F1E7C0B204330918102BE1D1434BC02292041A60F8
:40008000424B99221A60424A00231360414A80211160414AC9031160404A40211160404AC021490311603F4A312113603E4B02221A603E4B802019603D4B3E491A60992317
:4000C0001B040B603C49000608603C493C200B603B4B8021890519603A493B4B19603B4B19780A431A703A4A117881431420014311701A7816210A431A70364A8023116893
:40010000DB020B431360344B141C1878334BC0B21978334BC9B21A78172A05D9314A58789978033B9342F6D12F4B192218602F4B052019602E4B1A6000F05EFD2D4B052061
:400140001A782D4BD2B21A6000F09EFE22682B4B134023602A4A2B4B1A602B4B10221A602A4B20221A602A4B802212061A60294A294B1A60294A2A4B1A60F7BD00300F40BF
:4001800000400F402410000004000140100001400C000140000004400800044000010440080104400803044000040440080404401804044000500F4004500F4010500F403F
:4001C00018500F40100001002001054000700F4001700F4000010B40CCF1FF0FCDF1FF0FC9F1FF0FBDF1FF0F1CFF0B4020FF0B402CFF0B40E5F1FF0F28FF0B40FFFFFBFF57
:400200000600008004010B40080202402002024008010B401000008000000240AF0400804000024010B5064C2378002B07D1054B002B02D0044800E000BF0123237010BDEC
:40024000F0000020000000002010000008B5084B002B03D00748084900E000BF07480368002B03D0064B002B00D0984708BDC0460000000020100000F4000020D00000200F
:400280000000000010B562B600F0ACFC00280ED16524012000F0E2FD00F0A4FC002806D1013CE4B2002CF4D1034B40221A6000F08BFC00F0DBFAFEE7C000002008B500F01E
:4002C00015FB00F04DFB00F0B5FB08BD70B5054B0D1C161C0024C9B21C8000F09FFB3580201C70BD0C010020F0B50A275F4387B003900591151C00262D4CBE4219DA00F0E6
:400300001DFB80B220802388002B0CD00220268800F0A4FD00F012FB80B220802388B6B2B342F3D807E00120013600F097FDB6B2E2E7052600E0002600272F802388002B4D
:4003400033D023889BB2019301992B885A18059992B22A808A4221D2019ABB189BB2029302998F4209D07B1C9BB20493039BDF1900F0CAFA3870049FF2E772B62388019AF8
:400380009B1A9BB2238062B6039A5318013B1B78172B08D0052000F061FD04E02B8000F0DFFA052601E0029FC8E7301C07B0F0BD0C010020FEE7000070B51048104B013895
:4003C000421C15D01E685C689D680022A118AA4203D0B158A1500432F8E7DA680D1C4C1B944202D0002410C1F9E710330138E7E700F0DAFDFFF746FFFEE7C046010000003B
:400400007410000008B500239A00032B02D80D49895800E00C490D4801338150302BF3D1FFF7FCFD0A4B00221A600A4B1A68002A00D11A608023DB051A6801210A431A60B7
:4004400008BDC04600000000B503000000000020C8000020C0000020004770B5051C0E1C141C002802D0002000F0EAFC0020002C05D0013CAA19125D8318D8B2F7E770BD7A
:40048000013808B509282AD8C901494200F078FD0507090B0D0F1614181B154B08E0154B12E0154B0DE0154B0EE0154B00E0154BC9180878C0B21AE0134B02E0134B00E0A0
:4004C000134BC9180FE0134BC9180B7848788A780002120410431843CB781B0606E0002000F0AEFC00210B7848780002184308BDC07F0000C17F0000C57F0000C97F0000EF
:40050000D07F0000D17F0000D67F0000D27F0000D47F0000D87F00000C4B10B51A6810231A400B4B00D11A601A68802A0DD100240220211C1C60FFF7A3FFA04205D0211C6B
:400540000220FFF79DFFFFF787FF10BD00030B40C0000020F8B5051C291C0320FFF790FF291C041C0420FFF78BFF671CFF013F18291C0320FFF784FF00240130C001261C79
:40058000B84209D203785A1ED2B2FD2A00D801261C19E4B20130F3E70120291CFFF770FF6442E4B20623844203D17242564176423340181CF8BD0000F0B5A44CA544FFF756
:4005C0007DFE62B600260096002506AC03AE9621201C4900321CFF23FFF786FE0028F4D13188062900D88AE022780423012A54D1E778A2783F021743E2195679B44616796F
:400600000196FE1D8E427FD89279172A45D1FB189BB2002B08D09CA98D4ECA1892191278013B801880B2F3E7019B614640420A0280B21A43082382422FD167E0342B00D040
:400640009DE0009901295AD1032F58D151A80021802200F0D8FC802551A948192639ED19FA1EFF39ADB200F0C5FC832D49D1A079637900021843774B36021B6880191A68BB
:4006800080B2D3099BB2560601D001339BB298427BD20127009700250A2300210120207068466A46437681766B4600200E32D8760B1D11809BB29CAFFE18654F013BF61954
:4006C00036789BB2801980B2002BF4D19CAE624F7318DE194042614F80B23070DE19000A30705F4807311B181720187089B2201C9623FFF7EBFD68E7009E012E1BD0042315
:40070000CBE70126009600250323C6E763782679181C31380A2801D90523BEE700F03AFCECFF1400FCFF8EFF3F00FCFF430054008EFF63008B00002FE1D1381CFFF70AFF35
:4007400043424341237173E000980128D7D1012FD5D1002ED3D13F4B1B681B68DA0BD2B2DB09DBB2002A01D080235B0023711B0A6371FF23A3710023E37104218EE7009BA6
:40078000012BBCD1022FBAD966E751A900F048FA002800D07DE701260096051C12E0009F012FACD110E7009E012EA8D19623EE195B009E42A8D851A948193A1C07A900F0C2
:4007C00019FCB5B2002368E7002F98D104AB254A191C41CA41C107AA41CB41C2012600963B1C08215AE70098012888D1032F86D1A37962791B021A43310251180192C901C8
:4008000000208022FFF729FE071C002E0ED10199FF290BD1311C0520FFF732FE311C3F1A0620FFF72DFEFFB23F1AFFB27F4227710023012132E70020FFF78CFE002802D179
:40084000094B80221A6000F0FDFA58E78CFDFFFFA7FDFFFFD4000020ACFDFFFFADFDFFFFAEFDFFFF48100000C000002038B50020FFF770FE0025A84200D00625124C00209C
:400880002368C0211A68C03AFFF7E7FD62681378181AC0B2984203D123681B68002B02D1002000F0CDFA094B19681A1C402901D0002D03D000231360FFF77EFE80221A6083
:4008C00000F0C0FA38BDC046D4000020C000002008B5054B8022196812060A431A600A2000F09AFA08BDC0460000064010B5054C2378002B03D100F0BFF801232370FFF7AD
:40090000E7FF10BD10010020094B0A4A1968136899420BD011684B1C4039481E814149420B400549C85C1360C0B200E000207047B0010020280100206C010020064B074ACB
:400940001B6811688B4202D31068181A02E012684133981A7047C046B0010020280100200C4A0D4B002130B5106811601D68802464022C431C601D68084C2C401C60084BAB
:400980001C68084B1C60084B19700849084B1960106030BDC80F064004030640FFFFFEFF28010020B0010020AD010020ED0F0000C00F0640124910B50A68531C3F3A541E44
:4009C000A241524213400F4A1468A342FBD00C681268944208D10C4A14680F222240082A02D00A4B18600AE0094C02222260094CC0B2E0540B60084B19680A431A6010BD22
:400A000024010020200100200802064040020640800F06402C010020880F064038B5041C4518AC4204D02078FFF7C4FF0134F8E738BD00000B4A0023116810B513600A4B55
:400A400080201C684002204318601C68074820401860074B1868074B186002239943116010BDC046880F064004020640FFFFFEFF20010020240100201D4A1E4B10B51A60F0
:400A80001D4B00241C601D4B01221A601C491D4B07200B601C4908601C490A200C601C490A601C4A13601C4B1C6000F0BFF90A20032100F091F919490A2000F081F9184BAE
:400AC00004221C60174B1C60174B1C60174B1C60174B1A60174B1C60174B1C60174B1C60174B1C70174B1C60174B1C6010BDC0460B00000200000640400006404800064060
:400B0000000306400700008004030640100306404400064000020640040206409D0E0000880E0640C80E0640480F0640080F0640C80F0640880F0640B00100202801002070
:400B4000AD01002024010020200100200E4B8422D2041A601968802252020A431A600B490B4A0A60196819600A4BC32189001960094B00211960094B1C211960084B1A6087
:400B8000084A094B1A60704700010540080105401027000024010540380105402801054014010540881300000C01054008B500F02DF8044B01211A680A431A6000F02AF858
:400BC00008BDC0460000054010B5054C2378002B03D1FFF7BBFF01232370FFF7E7FF10BD18010020024B18680006C00F7047C04604000440000000000230800804D0C046B1
:400C00000138FDD1C046C046C0467047EFF3108072B6704780F310887047C046C046C046F0B50024CBB0069404900794FF2800D9A4E0A14200D1A1E008AD8022281C00F06E
:400C4000D9F9231C211C221C029498002858002802D01218014302930133202BF5D1002A05D1002900D08EE00191039102E0002001900390484F7F2328AE291C80222AA87D
:400C80002897464C736000F0B5F9454A454B266013602168090F0A2903D022680F23134000E000230693069F002F69D1FFF7AEFF3D4A3E4B116807971960069B0590002B56
:400CC00014D13B4A04982892289A01040A43289228AA22603249374A0A602268120F0A2A03D02E4B1A680F2313400693069F002F38D1019A002A35D0391C8022281C00F00F
:400D000082F90298039A08A983005A50224B2AA8289380227F23736000F06CF9214820492660086023681B0F0A2B03D01B4B1F680F231F400697069B002B13D11E4A049871
:400D40002892289A01040A43289215491B4A26600A602268120F0A2A03D0104B1A680F2313400693079B002B04D1104A0E481268026007930598FFF74DFF01E00423069343
:400D800006984BB0F0BD02998B00E85801210390EA5001916EE7C046B6D7000008000040040000400400008008010B401C010020B6D8000005000080B6D900000600008055
:400DC0001F2800D901BE034A80008318186819607047C0464000002038B5041C0D1E032D00D901BE1F2C00D901BEFFF70FFFA308084A9B009B18032214409440196806345C
:400E0000A2409143A5400C1C2C431C60FFF702FF38BDC04600E400E01F23184001238340181C014B1860704700E100E01F23184001238340181C014B1860704780E100E0EC
:400E400001BE7047034B04491A6892B20A431A607047C0460CED00E00400FA0510B5041C8022074B1202944205D91868FFF7C4FE044BE418F4E758686043FFF7BDFE10BD5B
:400E8000DC0000200080FFFF08B5034B1B7A5843FFF7B2FE08BDC046DC000020274B10B51B68002B00D09847254B1B685A071DD5244B1B681A0716D0234B244A1868116868
:400EC0004B1C40394C1EA14149420B40204909688B4203D11F4B20221A70E9E71E49C0B2C8541360E4E71D4B04221A601C4B1B689A0721D51B4B1A680F231340082B18D02B
:400F0000194B1A4A1968136899420DD011684B1C3F39481E814149420B401549C85C1549C0B208601360E5E7134B02211A688A431A60124B02221A6010BDC0461401002099
:400F4000CC0F06400803064040030640B001002028010020AD0100206C010020C00F06408C0F06400802064024010020200100202C01002040020640880F0640800F0640AE
:400F800002B4714649084900095C49008E4402BC7047C04603B47146490840004900095E49008E4403BC704770B50E4B0E4D0024ED1AAD101E1CAC4204D0A300F358984765
:400FC0000134F8E700F044F8084B094D0024ED1AAD101E1CAC4204D0A300F35898470134F8E770BD5C1000005C1000005C1000006410000010B50023934203D0CC5CC4548E
:401000000133F9E710BD031C8218934202D019700133FAE770470000A8100000EE0000000000000001330F4003410F4004430F4002600F40E61062048E04D84018808C40AD
:40104000C608E608020111019311C804111E0101F8B5C046F8BC08BC9E4670474D02000005040000F8B5C046F8BC08BC9E4670472502000088100000D0000020200000004B
:40108000C80000000000000000000000181000001C1000000000E02EC05D00001800000000366E01000000000000000000000000000000000000000000000000000000002C
:4010C00000000000000000000000000000000000000000000000000000000000000000000000000000000000000000000000000000000000000000000000000000000000F0
:401100000010002011110000911300009113000080B500AF024B83F3088800F03DF9C0460010002080B500AF104B104A12688021C9020A431A60032000F008FA0B4B0B4A7C
:4011400011680B4A0A401A600A4B0B4A1A600B4B10221A600A4B802212061A60094B0A4A1A600A4B00221A60BD4680BD00010B40FFFFFBFF04010B4006000080300202404D
:4011800008010B4000000240260000800C020B4080B582B000AF72B6FB1D00221A7023E0FB1D1A78131C5B009B185B00314A9B183B603B681A78597809020A43997809040E
:4011C0000A43DB781B0613431A1C3B6819795B791B020B439BB2101C191C00F063F9FB1D1A78FB1D01321A70FB1D1B78012BD7D9214A224B101C191C00F064F9204BC0225B
:4012000092051A601F4B00221A601F4B00221A601E4B992212041A601D4B802212061A601C4B1C4A1278D2B202210A43D2B21A70194B194A1278D2B23C218A43D2B2142130
:401240000A43D2B21A70134B124A1278D2B216210A43D2B21A70114B80221A60104BC02212041A60FFF75EFF00F06CF9BD4602B080BDC046504300005C43000070430000EF
:40128000040001400C0001400803044010500F4018500F4000700F4001700F40000104400801044010B5064C2378002B07D1054B002B02D0044800E000BF0123237010BD65
:4012C000E8000020000000004C43000008B5084B002B03D00748084900E000BF07480368002B03D0064B002B00D0984708BDC046000000004C430000EC000020D0000020D1
:40130000000000000000000090B587B000AF00F02BFA1C4C1A4BBB60FC6000237B612AE0786902F089FF031C0C1C181C211CBA68FB6802F089F9031C0C1C181C211C00F06C
:4013400093FA031C0C1C181C211C0F4A0F4B02F07BF9031C0C1C3B607C603868796801F0EBFC031CDBB26433DBB2181C00F03EFA7B6901337B617B697F2BD1DDCDE7C046E2
:40138000182D4454FB21A93F000000000000594080B500AFFEE7C04680B586B000AF224B7B61224B3B61204B7B6135E03B691B68FB603B695B68BB603B699B683B600023B3
:4013C0007B600CE0FB681A68BB681A60BB680433BB60FB680433FB607B6804337B607A683B689A42EED13B69DB683B6000237B6008E0BB6800221A60BB680433BB607B68A6
:4014000004337B607A683B689A42F2D13B6910333B617B69013B7B617B69002BC6D102F067FFFFF771FFFEE7010000001447000080B582B000AF00237B600FE07B68032B3E
:4014400004D8134B7A689200D35800E0114B124A796889008B507B6801337B607B682F2BECD9FFF795FE0D4B00221A600C4B1B68002B02D10A4B00221A608023DB05802257
:40148000D205126801210A431A60BD4602B080BD001100009113000000000020C8000020C000002080B582B000AF786039607A683B68101C00211A1C02F040FFBD4602B0EE
:4014C00080BDC04680B586B000AF7860396000233B6100237B612EE07B699B007A68D3181B68BB603B1C0F33BA681A70BB68FF229343BB6017E03B695B003A68D3181B78D8
:401500001A1CBB68D3183A69520039688A1852781A703B6901333B613B1C0F331A783B1C0F33013A1A703B1C0F331B78002BE2D17B6901337B617B69042BCDD9BD4606B06E
:4015400080BDC04680B500AFBD4680BD90B585B000AF78607B68022B00D8BAE07B68302B00D9B6E05E4B1B78DBB21A1C7B689A420AD35C4A3B1C0F3312781A705A4A3B1CEB
:401580000E3312781A703FE0584B1B78DBB21A1C7B689A420AD3564A3B1C0F3312781A70544A3B1C0E3312781A702DE0524B1B78DBB21A1C7B689A420AD3504A3B1C0F33BC
:4015C00012781A704E4A3B1C0E3312781A701BE04C4B1B78DBB21A1C7B689A420AD34A4A3B1C0F3312781A70484A3B1C0E3312781A7009E0464A3B1C0F3312781A70454ADB
:401600003B1C0E3312781A707B68DA1E3B1C0C3341498A5C1A703C1C0B3400F01BF9031C23703B1C0C331B782F2B0DD97B682A2B0AD93A4B19221A60052000F001F93B1C22
:401640000D3319221A7007E0344B1B68D9B23B1C0D333F220A401A703A1C0C323B1C0D3312781B789A4208D22C4B7A68033A2A498A5C1A60052000F0E3F8294B7A6825490A
:4016800052181278D2B21A60264B3A1C0F3212781A60254B3A1C0E3212781A60052000F04FF83A1C0C323B1C0D3312781B789A4208D91A4B7A68033A17498A5C1A60052058
:4016C00000F0BEF83B1C0B331B78181C00F0C6F802E0002000F02AF8BD4605B090BDC046C0F1FF0FC1F1FF0FC2F1FF0FC3F1FF0FC4F1FF0FC5F1FF0FC6F1FF0FC7F1FF0F07
:40170000C8F1FF0FC9F1FF0FCAF1FF0FCBF1FF0FCCF1FF0FCDF1FF0FA84400002CFF0B4028FF0B401CFF0B4020FF0B4080B582B000AF021CFB1D1A7001BEBD4602B080BDC5
:4017400080B582B000AF021CBB1D1A80BB1D1B88044A12785343181C00F072F8BD4602B080BDC046DC00002080B500AF064B1B78002B04D100F00AF8034B01221A7000F0B3
:4017800019F8BD4680BDC0460401002080B500AF054B06221A70054B47221A70044B00221A70BD4680BDC04622000F4032000F4083000F4090B583B000AFFC1D00F04AF80D
:4017C000031C2370084B084A1278D2B210210A43D2B21A7000F024F8FB1D1B78181C00F03DF8BD4603B090BD93000F4080B582B000AF021CFB1D1A70C046074B1B78DBB2B5
:401800001A1C04231340F8D1044BFA1D12781A70BD4602B080BDC04663000F4043000F4080B500AF044B044A1268802109060A431A60BD4680BDC04600000240000000007F
:401840000230800804D0C0460138FDD1C046C046C0467047EFF3108072B6704780F310887047C046C046C04610B5021C28480B1C490086B0490881421FDD2648814205DDC3
:40188000101C191C02F070F906B010BD101C191C02AA00F041F803231840012822D0022814D0002825D0049A059B0298039900F06FFA80231B06C918E6E700210091101CD2
:4018C000191C124B104A00F09FFFDDE70124049A059B02980399009400F096FF80231B06C918D1E7049A059B0298039900F050FACAE7012402980399049A059B009400F01F
:4019000083FFC1E7C046C0460000000000000000FB21E93FFFFFEF7FF0B556464D4644465F46F0B44B005E08A34B91B0041C0D1C91468A469E4200DC86E0A04B9E4223DC5E
:40194000002900DCCEE1291C8C4B8B4A02F00CF99B4B041C0D1C9E4200D18FE0884A894B02F002F9021C0B1C49460A604B60201C291C02F0F9F8824A824B02F0F5F84A4694
:401980009060D160012067E08E4B9E4200DC91E08D4B9E4267DC8D493315C9180B05F51A8B46291C041C02F013FC02F045FC021C0B1C201C291C0A920B9302F0D5F8724A9A
:4019C000724B01F041FE0F1C061C02F001FC02F033FC041C0D1C221C2B1C301C391C0C940D9502F0C1F8684A684B01F02DFE684A684B0E900F9101F071F9002800D192E156
:401A0000634A644B201C291C01F068F9431E984102231B1A022200926D4A0AA8019249465A4600F0D9FA5246002A15DA4C4664688021090663184946CA68802424064B60CB
:401A40001319CB60404207E0111C14605560504A504B8A60CB60002011B03CBC90469946A246AB46F0BD221C2B1C02F07DF84A469060D160106051600020EDE7464A474B1E
:401A800002F072F8464A474B041C0D1C02F06CF8021C0B1C49460A604B60201C291C02F063F83F4A3F4B02F05FF84A469060D1600120D1E700F054FF3B4A3C4B041C0D1CD4
:401AC00001F0C2FD3A4A3B4B01F056F902F080FB834602F0B1FB294B274A0490059101F0B3FD021C0B1C201C291C02F03DF8244A244B029003910498059901F0A5FD5B460A
:401B000006900791029803991F2B65DC5A46013A304B9200D358B3425ED0069A079B02F023F80D1C0F1C041C49460C604D60804642463B1C0298039902F016F8069A079BF8
:401B400002F012F84A46041C0D1C9460D5605446031C5846002C00DB7EE744461460802212064C46BF1889186760A360E160404272E7C046C046C04600004054FB21F93F02
:401B80003163621A61B4D03D000000000000704100000000000000000000601A61B4D03D7370032E8A19A33B83C8C96D305FE43F000000000000E03FFB21E93F7BD90240E5
:401BC000FB21F93FFB213941FFFFEF7FEAFBFFFF58450000D8440000069A079B01F0C4FF4B00041C0D1C4A4636155B0D80460F1C14605560F31A102B9ADD584B564A04986E
:401C0000059901F021FD041C0D1C221C2B1C0298039901F0A9FF08900991089A099B0298039901F0A1FF221C2B1C01F09DFF4C4A4C4B041C0D1C0498059901F005FD221C28
:401C40002B1C01F091FF06900791069A079B0898099901F089FF4B460D1C041C1C605D604B005B0D0F1C80460899099AF31A02910392312B00DC5BE73B4A3C4B0498059981
:401C800001F0E2FC041C0D1C221C2B1C0298039901F06AFF02900391029A039B0898099901F062FF221C2B1C01F05EFF304A314B041C0D1C0498059901F0C6FC221C2B1C7F
:401CC00001F052FF06900791069A079B0298039901F04AFF4A46041C0D1C80460F1C1460556025E7291C244A244B01F045F8264B041C0D1C9E4218D0214A224B01F03CF8F4
:401D0000021C0B1C49460A604B60201C291C01F02BFF1B4A1B4B01F02FF84A469060D1600120404298E6032374E60C4B0A4A01F023F80B4A0B4B041C0D1C01F01DF8021C1A
:401D40000B1C49460A604B60201C291C01F00CFF034A044BDFE7C0460000601A61B4D03D7370032E8A19A33B0000002E8A19A33BC14920259A837B3900004054FB21F93FCB
:401D80003163621A61B4D03DFB21F93FC046C046F0B5474680B488B0029203934B005B089846894B061C0F1C984563DC02F010FA002800D1DDE0321C3B1C301C391C01F017
:401DC00043FC6E4B6C4A041C0D1C01F03DFC6C4A6C4B00F0D1FF221C2B1C01F035FC6A4A6A4B01F0C1FE221C2B1C01F02DFC684A684B00F0C1FF221C2B1C01F025FC664ADA
:401E0000664B01F0B1FE221C2B1C01F01DFC644A644B00F0B1FF221C2B1C01F015FC04900591614A614B201C291C01F00DFC049A059B00900191201C291C01F005FC029AD3
:401E4000039B041C0D1C301C391C01F0FDFB021C0B1C201C291C01F087FE021C0B1C0098019901F081FE021C0B1C5148514901F07BFE71E0321C3B1C01F0E6FB3F4B3E4A12
:401E8000041C0D1C01F0E0FB3D4A3E4B00F074FF221C2B1C01F0D8FB3B4A3C4B01F064FE221C2B1C01F0D0FB394A3A4B00F064FF221C2B1C01F0C8FB374A384B01F054FED6
:401EC000221C2B1C01F0C0FB354A364B00F054FF2B1C221C01F0B8FB3C4B0490059198459FDD3B4B98453BDC3A4900220B1C43442F4830490092019301F036FE0690079105
:401F0000294A2A4B201C291C01F09EFB009A019B01F02AFE049A059B00900191201C291C01F092FB029A039B041C0D1C301C391C01F08AFB021C0B1C201C291C01F014FE9D
:401F4000021C0B1C0098019901F00EFE021C0B1C0698079901F008FE08B004BC9046F0BD154A164B069207931549164A00910192C6E70F480F49EFE7D43888BEE9FAA8BDD8
:401F8000C4B1B4BD9EEE213EAD529C804F7E923E9015CB19A001FA3E7751C1166CC1563F4C5555555555A53F000000000000E03F000000000000F03F000000000000E73F88
:401FC000000000000000D23FFFFF3F3E3233D33F0000E93F0000E0FFF0B556464D4644465F46F0B48E4C8246A544A89D10938D4B141CAA00109DD2580E91013DE01E182120
:402000000C92069500F0F8FDC343DB171840C3435A00D318DB001B190F90441B0C980B932F1817D4A998A500E71926AE4519013707E0286802F000F9013403C60435BC427F
:4020400008D0002CF5DA01346C496B48043503C6BC42F6D10C9C002C00DAADE30C9B109C0133DB00E4009EADA34699462B1C5B44E93B002076ACFF3B80460D940493069D6B
:40208000002D00DAACE104980026071C47445B4D594C50468319186859683A687B6801F0D3FA021C0B1C201C291C00F065FE0836041C0D1C083F5E45EBD10D9908220B1CDC
:4020C000434490441C605D60C845D8D10C9D11ACAB000894E41811940A950A9C0D9DE300EB181E685F68002C38DD231C013BDB00ED1812A8A300A846C41855468146049568
:40210000A2463F4A3F4B301C391C01F09DFA02F05FF802F091F83C4A3C4B041C0D1C01F093FA021C0B1C301C391C01F01DFD02F04FF8494604318946043901C1201C444661
:40214000291C2268636800F017FE08256D42061C0F1CA844D145D4D104988246301C391C0B9A00F0B9FC2A4A2A4B041C0D1C01F06BFA00F0F9FB284A284B01F065FA021CE2
:402180000B1C201C291C01F0EFFC041C0D1C02F01FF8814602F050F8021C0B1C201C291C01F0E2FC0B9C061C0F1C002C00DCF9E00A9A12AD013A9200AB581821091B181C1A
:4021C0000841814488401B1AAB5017252D1B2B410993099D002D50DD0A9C0125A944002C00DC08E1A10012AB8022591800240E48550423E0C046C046000000000000000050
:40220000000000000000703E0000000000007041000000000000C03F000000000000204084FDFFFF60460000FFFFFF00002A02D0AA1A1A60012404338B4208D01A68002CD5
:40224000F4D0821A1A60043301248B42F6D10B9D002D0EDD012D00D1AFE0022D09D10A9B12AA013B9B00D25812AD02929202920AEA50099D022D00D17BE0301C391CCB4B66
:40228000C94A00F02BFD002800D1B6E00A980C9C013884420CDC810012AD119C6B1800221D68043B2A43A342FAD1002A00D067E20C9B12A8013B9B00C358002B00D079E2D4
:4022C0000C9B0122023B9B00C318043B596801320029FAD00A9B0A9C0133A4180A94A34200DDFAE60F9DA99C5A199200A418069DA1460D9CEA18DB00E318109D0A9C049319
:402300002B19D20026A8DB0026AD80185D19804609954946086801F08FFF069C424610605160002C22DB47460026A04D9E4C50468319186859683A687B6801F085F9021C98
:402340000B1C201C291C00F017FD0836041C0D1C083F5E45EBD10499082330C1099C0422984404919144A045D3D1B6E68F4D8E4CF1E7321C3B1C8E488E4901F0F5FB061CB2
:402380000F1C002C00D178E70B9A8948894900F0A3FB021C0B1C301C391C01F0E5FB061C0F1C6AE70B9C002C11D10A9B12A8013B9B00C558ED1509950BE70A9B12A8013B36
:4023C0009B00C05812A94202520ACA5051E77A4A7A4B00F0A7FC002805D1002409944CE7724D714C69E6022409940A9C0125A944002C00DDF6E6002429E70B9D4C466A4229
:40240000301C391C0F9400F067FB6D4A6D4B041C0D1C00F087FC002800D1D3E16A4A6B4B201C291C01F010F901F0D2FE061C0A988700301C01F000FF614A624B01F004F9BB
:40244000021C0B1C201C291C01F08EFB01F0C0FE0A9A0B9C904601229044454612A91834AB00C8510B94CE50514852490B9A00F033FB4346041C0D1C002B5CDB0D999E00D3
:40248000DB0012A89B460F1C86195F44306801F0D3FE221C2B1C01F0D7F84B4A4B4B38607960201C291C01F0CFF8089A043E041C0D1C083F9642E9D10D9B45461C1C5C44B4
:4024C0000C9A0494013500204EA9444606958346894692460A945046002860DB3C49049F8846324D304C002604E00823984408375E4511DC4246106851683A687B6801F025
:40250000A3F8021C0B1C201C291C00F035FC0136041C0D1CB245E8DA5846C3004B441C605D60049C0121069D083C8B440494AB45D1D10A9A9046A89C022C4BDC002C00DDF9
:40254000DFE020D14346002B00DA5AE1DC004EAD2C194CAE00250023281C191C2268636800F00AFC083C051C0B1CB442F4D1099C191C002C02D08020000619180E9C2A1CDA
:402580000B1C226063600F9C072020409F239B009D443CBC90469946A246AB46F0BD034D014CB9E7C046C0460000000000000000000000000000F03F000000000000E03F75
:4025C0000000000000007041000000000000703E70460000A89D032DD5D14046002800DC0AE140464EADC00083462B1C5B441E685F684346013BA946DB004B444CAC04934C
:402600000A949A4601E0261C2F1C55462C686D68321C201C291C3B1C0694079500F0ACFB041C0D1C221C2B1C0698079901F09CFA321C3B1C00F0A0FB52469060D160082013
:4026400040420A998244146055608A45DBD1424600270026012A3ADD4B46049D5B441E685F68A84601E0261C2F1C45462C686D68321C201C291C3B1C0494059500F07CFB87
:40268000041C0D1C221C2B1C0498059901F06CFA321C3B1C00F070FB42469060D16008204042804414605560C145DCD14C464D465C44083500270026381C311C2268636883
:4026C00000F05AFB083C071C0E1CAC42F4D1099C002C00D181E00E9C4E984D4620606D68802000062B18494663604846CB688022120680689B18B618A060E3602761666125
:4027000041E7424600250024002A10DBD3004EA8C6184CAF00250024281C211C3268736800F02AFB083E051C0C1CBE42F4D1099A211C002A02D080231B06E1180E980B1CDB
:402740002A1C026043604E984F992A1C231C01F00BFA4246002A07DD50ACD50065190CCC00F00AFBAC42FAD1099C002C02D080252D0649190E9C021C0B1CA260E36002E760
:402780000B9D804612A843584C46183D0F940B95002B00D068E64246013A9300C318291C00E0013A043B5D681839002DF9D090460B9159E601228DE5109D76ACED00AB4614
:4027C0000D9483E40A98291C8600201C01F000FD0A9A12A98851904646E60E9C4E984F993A1C20606160331C49468868C96822616361A060E160C6E64EA9002700268946AB
:4028000065E700250023B2E6F0B589B004920593514B4A00061C0F1C52089A4206DC01F0D7FC391C031C301C002B64D0321C3B1C301C391C00F008FF321C3B1C041C0D1C07
:4028400000F002FF374B364A02900391201C291C00F0FAFE344A354B01F086F9221C2B1C00F0F2FE324A334B00F086FA221C2B1C00F0EAFE304A314B01F076F9221C2B1C61
:4028800000F0E2FE2E4A2F4B00F076FA0E9B06900791002B31D02C4A2C4B0498059900F0D3FE069A079B009001910298039900F0CBFE021C0B1C0098019901F055F9221CC4
:4028C0002B1C00F0C1FE049A059B01F04DF9204A204B041C0D1C0298039900F0B5FE021C0B1C201C291C00F047FA021C0B1C301C391C01F039F909B0F0BD069A079B201C92
:40290000291C00F0A1FE124A124B01F02DF9029A039B00F099FE321C3B1C00F02DFAEAE77CD5CF5A3AD9E53DEB9C2B8AE6E55A3E7DFEB157E31DC73ED561C119A0012A3FB5
:40294000A6F810111111813F000000000000E03F495555555555C53FFFFF3F3EC046C0464B0059087047C046F0B556464D4644465F46F0B4524A4F007F0D83B0BE18041C6A
:402980000D1C89468A4680460197132E2ADC002E56DB4C4F021C37413B1C0B4003439C46BB4667460B1C002F13D0424B404A00F0E3F9414A414B00F0ABF9002807D0002DAF
:4029C0004EDB53465F46BB430022994690464B464246101C191C03B03CBC90469946A246AB46F0BD332E0BDD0B1C8021021CC9008E42EED1291C00F0BFF9021C0B1CE8E7B3
:402A0000019F314ABB1801225242DA4093465F46021C0B1C0742DCD0264B254A00F0ACF9254A264B00F074F90028D0D0002D1DDB42465B469A439046D1464B464246C8E7C5
:402A40001C4B1B4A00F098F91B4A1C4B00F060F90028BCD0002D17DB0027B846B946B6E780235B0333415E19B246AAE7142E19D0164B019A9F1A0123BB401B199C420FD9F2
:402A80006F1CBA469846D3E76B005B081C4302D10027B8469BE70E4F00239846B94696E79846C5E76B1C9A46C2E7C046C046C0469C7500883CE4377E000000000000000058
:402AC00001FCFFFFFFFF0F00EDFBFFFF330400000000F0BFC046C046F8B53D4E171C331C0B40041C0D1C0A1C1B1525D14B005B0818431ED0201C291C2E4B2D4A00F0A4FD63
:402B0000344B041C0D1C9F4231DB0E4033150A1C363B3149DB198B4215DD221C2B1C2648264900F061F8244A244B00F08DFD041C0D1C291C201CF8BD28498B421ED026496A
:402B4000DB198B42E9DC002B05DD25491B050A401D1C1543EDE7191C353118DA214B9F42DBDC17481749221C2B1C00F03DF8144A144B00F069FD041C0D1CDAE7201C291CED
:402B8000221C2B1C00F0F8F8041C0D1CD1E7144936331B050A401D1C1543201C291C0A4A0A4B00F051FD041C0D1CC2E7C046C04600000000000050439C7500883CE4377E87
:402BC00059F3F8C21F6EA501000000000000903C0000F07FB03CFFFFFE070000FF070000FFFF0F8050C3000030B5DA0FD2074B005B08111C194330BD002941D010B4041CE3
:402C00004C40A44601230022002900D54942002800D5404288422CD301242407A14204D2814202D209011B01F8E7E400A14204D2814202D249005B00F8E7884201D3401AB3
:402C40001A434C08A04202D3001B5C0822438C08A04202D3001B9C082243CC08A04202D3001BDC082243002803D01B0901D00909E3E7101C6446002C00D5404210BC704702
:402C8000002806D003DB0020C043400801E08020000607B4024802A14018029003BDC046190000000029EBD003B5FFF7A7FF0EBC4243891A1847C0467047C0468446101C93
:402CC00062468C46191C634600E0C0461FB500F03DFC002801D40021C8421FBD10B500F06DFB4042013010BD10B500F02FFC002801DB002010BD012010BDC04610B500F07E
:402D000025FC002801DD002010BD012010BDC04610B500F09DFB002801DC002010BD012010BDC04610B500F093FB002801DA002010BD012010BDC04638B50E4B0C4A041C75
:402D40000D1CFFF7EFFF002804D1201C291C01F03FFA38BD074B064A201C291C00F004FF01F036FA80231B06C018F2E7C046C046000000000000E041F8B55F465646444658
:402D80004D46F0B40C034D00CE0F610A440F2143C400180380465800400D8246D80F84464046400A530F0343D0006D0D371C83465246664500D1A4E0AF1A002F00DC09E18A
:402DC000002A3BD1184300D0EAE0630700D187E00F232340042B00D182E0221DA242A4416442802309191B040B40371C141C002B00D17CE0CE4B01359D4200D105E1CD4B5A
:402E0000E40819404807490204430B0B002000211B031A0B0B0D6D051B0513436A08C64DFF071D4015436D006D08291C3943201C3CBC90469946A246AB46F8BDBC488542AD
:402E4000C3D0802000040343382F00DDF0E01F2F00DD24E12020C01B1A1C814682405846F8400243944658464A469040421E9041FB40624602431F1CA21A9442A441644213
:402E8000C91B091B141C0B029FD549024F0A002F00D1C8E0381C01F00DFA021C083A1F2A00DDB5E02821091A201C9740C84007439440954200DDB2E0551B691C1F2900DDA1
:402EC000DCE01F22551B3B1C221CAB40CA40AC40651EAC411343CF401C43391C002574E780231B040B40371C002B00D082E7904B4807E4080443C9089D4248D009030B0BDB
:402F000084E7AA1A9446002A00DC98E05046002852D08748854200D157E78020000403436246382A00DDFCE01F2A00DD4AE120226046101A1A1C8240824691465846624698
:402F4000D0404A4602439046584652469040421E9041424602436046C3401219A242A441644259180919141C080200D42DE7704B01359D4200D122E16E4B60081940012358
:402F800023401C1C0443CB071C4349081DE7231C0B433AD080231B030B431B031B0B35E7013F002F65D15846221A9442A4416442C91A091B141C66E75846184300D104E78A
:402FC0000122524294446046002800D0C5E058460219C3E7002F73D1681C4005400D012800DCDEE05A46A21A9442BF41C81A7F42C71B380200D489E05A46141BA345924198
:40300000591A52428F1A664641E700230024FDE6271C283887400024954200DC4CE74549AD1A3940D1E6201C01F044F9203034E75A461A43531E9A41D2B200271CE7002AF3
:4030400000D0DCE0681C4205520D012A00DC8DE0374DA84200D1F3E05D462A19A242A441644259180919CC07520814434908051CABE62F48854200D0E6E6A6E62B1C1F3B9E
:403080003A1CDA40131C20296CD03F22551BAF403C43601E84411C430021002595E6381C20381A1CC240101C202F5DD04022D71BBB405A461A43531E9A4102430027DBE6F9
:4030C000002D3BD01A4DAA4500D193E080252D047F422943382F00DDACE01F2F00DD29E12025ED1B081C261CA840FE40AC400643651EAC413443F9405D462C1BA345924123
:403100005B1A5242991A55466646BCE6131C3B43141C002B00D0BAE60027002100250024E5E65A461A43531E9A41D2B2002314E7FF070000FFFF7FFFFFFF0F800D1C25438B
:4031400058D0FF43002F51D1041BA3459241591A5242891A5546664695E69648854200D0DEE632E6002793E70023A2E7081C2043002D00D0C4E0002800D1F7E058461843BF
:4031800000D122E658460219A242A441644259180919141C0A0200D417E6874B0125194013E6081C2043002D39D1002871D15946194303D0191C5C46664606E60027002177
:4031C000002494E6604620381A1CC24060469146202800D1ACE04022121A93405A461A43531E9A414B461A430023B6E6714DAA4500D06FE7191C5C4655466646E5E5002D9A
:4032000022D10D1C254377D0D543002D71D15C445C4592415918524289185546A4E600284DD15946194300D194E0191C5C466646604DCAE50C43611E8C41E4B200215BE764
:40324000051C0021002452E65A4DAA4554D05542802210040143382D00DD81E01F2D00DD92E02022501B0A1C84468240201CE8400243904662469440601E844142461443AB
:40328000E9405C445C459241CB185242991855466AE65846184300D197E55846271ABC429241C81A5242801A020266D55846041BA3459241591A5242891A664685E55846A3
:4032C000184333D04807E40804438020C9080003014208D0DD08054205D15946CA085C071443291C6646630FC9001943E400314D6BE5304A9245AED1191C5C46554664E56D
:40330000002836D05846184310D080254807E408C9082D0304432942E5D0D8082842E2D15D46EA085C071443011CDCE7214D4CE5002353E73D1C203D0A1CEA40151C202F90
:4033400034D04026F71BB9400C43611E8C412C430021D1E680210027C903164D0024C6E50C43611E8C41E4B200218AE7191C5C462BE5191C5C460F4D27E5031C3B4300D1D9
:403380001CE7011C3C1C20E52020404240190A1CC2409046202D0BD04020451BA9400C43611E8C4145462C4300216AE70021CBE70021F4E7FF070000FFFF7FFFF0B55F4604
:4033C00056464D464446F0B40D1C041C8046E80F814618030F03000B3F0B83B084461B48009749005E00DF0F490D9246760DBB4681420CD01548864210D00120B14215D046
:4034000003B03CBC90469946A246AB46F0BD009F01202743F4D10D488642EED1604602430120002AECD10120B142E9D1009B6345E6D1D045E4D1D94506D00029E0D11C4329
:40344000201C441EA041DBE70020D9E7FF070000F0B55F4656464D464446F0B4CD0FDE0FAC461D032D0BB146374E0F034C00AB465D0080463F0B640D92466D0DB44232D078
:40348000314EB54235D0002C0ED1384341424141081C002D0BD0002919D1CC452DD0654668420123184318E0002DF6D1281C59460A4353425341002806D1002BEDD0634610
:4034C00058420123184308E00020002B05D14A46504250414042012318433CBC90469946A246AB46F0BD3E1C0643C9D002204042F3E75E461643C6D0F8E7AC4207DC0BDAE1
:40350000614648424841404201231843E5E76646704201231843E0E75F450AD80ED000205F45DAD2654668426841404201231843D3E76246504201231843CEE7D045F8D880
:403540000020D045EED3C8E7FF070000F0B556464D4644465F46F0B40D1C83B0041C0190E80F814618030F03000B3F0B84463548009749005E00DF0F490D9246760DB8468A
:40358000814234D02F48864236D0002918D0002E1FD1341C67463A4353425341002C1FD00020002B05D142465042504140420123184303B03CBC90469946A246AB46F0BD5F
:4035C0000098044360426041041C002EE2D00028E9D1C14515D04F46784201231843E8E7002BF6D04B46584201231843E1E7009F02202743DDD1C5E7674602201743D8D185
:40360000C3E7B14204DD4A46504201231843D0E7B14207DB00986045E4D80AD0009F00206745C6D24F4678427841404201231843BFE7019A5245D5D8019A00205245F1D365
:40364000B7E7C046FF070000F0B5564644465F464D46F0B41F1C0B031B0B9A464B0087B0041C80465B0DC80F161C02938146002B68D0694B0299994232D080225346520356
:403680001A43D200630F1A439246644AE000891880460291002400253B031B0B9B467800FB0F321C400D039300D175E05A4B984269D08022594652030A43730FD2001A43F9
:4036C000564B9346C018F200002303994E4671401C430F2C00D9A9E0514EA4003459A74653461C4300D087E00025AA46A84608240225D1E74946022D6CD0032D00D117E298
:40370000012D00D058E10D40EDB20024A9460023A0460020002125030A0D1C052D0B1205404B2A43134023435B004C465B08E207191C4046114307B03CBC90469946A24615
:40374000AB46F0BD5346234350D05346002B00D184E1504600F0AEFD031E272B00DD76E128210D1A211C083B5246E9409A400D1C1543221C9A40AA4690462B4B00241B1A01
:403780000293002588E75B461E430323002E9CD1B3460022022398E75B46334321D05846002800D14EE100F085FD272800DD42E128210F1A021C311C083A5B46F940934003
:4037C0000F1C1F43331C9340BB461A1C164B181A00237AE701230B4000249946A0460E4B97E70027BB46002201236EE7002104248A46884601254FE70C2403254CE70025E7
:403800008024A9462403A846034B82E7DA46904603991D1C6FE7C046FF07000001FCFFFFB0460000FFFF0F800DFCFFFF029F160C381804904046070C0004000C1204120CF3
:40384000031C5343041C3D1C7443554398463B1C73436419A44644460293230C63449D4204D9029D802464022D1902951D0C039545462C041B04240C1C1905945C46230CD8
:40388000051C58432404240C8446381C604365435F438146CC44280C6044BB46814502D980277F02BB442D04070C2D0C000440195546BC462F04E3448446280C3D0C2F1C0E
:4038C0005743B8462F1C77434243B94647463F0C9144BA46D14446434A4502D980225202B6184F463A0CB6183A0447463F043F0CB8462F1C67435D43444358436519019068
:40390000380C2D184244B846AC4204D9019880235B02C0180190039C029F201C6044C0196045A44147466442A4462B043C049946240C4C44A046D8448018C246E244904265
:403940009241574652429146F219E245BF417F424B46BC46D845BF41D4187F4263461F432D0C7F19B24292414C45AD4152426D421543019E7D19AB19E20D5B02059F134320
:4039800042023A439A46531E9A41C30D101C18436402204380465046C0010DD5454601225646049C6B082A401A43F30701341A43760804949046B246049E634FF319002BDC
:4039C00061DD404640070BD00F2244462240042A06D042460432424580414042824490465546ED0107D5594B5646049F80201E40C000B2463B18564A934200DDEAE644469F
:403A00005546E2086807104301226C025B050A408046240B5B0D91467BE6DA4690461D1C69E680242403574627421CD13C432403240B484B6DE6031C283B311C99408B46FF
:403A40000022C3E6301C00F035FC2030ADE6283B211C994000228A4690468EE6201C00F029FC203078E65846204207D1044303992403240B89469046364B4AE63C4324036A
:403A8000240B344B45E6344B049E9B1B382B06DD01230B4000249946A046002339E61F2B25DC049C2D4D46466019524644468640DC4082405746301C2243DF40441EA04196
:403AC00002433B1C540709D00F201040042805D0101D9042924152429B18021C1D021AD501230B4000249946A046012311E61C48049C5546001BC540281C202B16D0194E23
:403B00005746A21997403A1C43461A43531E9A4102430023D6E758075B02D2081C0B01230B401043994680460023F2E50022EBE78024240350460123044319402403240B1C
:403B40008946044BE5E5C046FF030000FFFFFFFEFE070000FF07000002FCFFFF1E040000E2FBFFFF3E040000F8B55F46564644464D46F0B40C034D00CF0F610A440F214309
:403B8000C4001803DE0F8046B44646465800760A530F3343D600D14A6D0DBA46400DB346904200D1F5E06246012672409446674500D1ABE02F1A002F00DC11E100283ED134
:403BC0005846184300D0F1E0600700D197E00F232340042B00D122E1221DA242A4416442802309191B04012750460B400740141C002B00D179E0B94B01359D4200D10BE1A7
:403C0000B74BE40819404807490204430B0B002000211B031A0B0B0D6D051B0513436A08B04DFF071D4015436D006D08291C3943201C3CBC90469946A246AB46F8BDA7488F
:403C40008542C1D0802000040343382F00DDFDE01F2F00DD31E12020C01B1A1C5E468240FE40324394465A468240101C421E9041FB40624602431F1CA21A9442A441644221
:403C8000C91B091B141C0A029ED549024F0A002F00D1D6E0381C00F00DFB021C083A1F2A00DDC3E02821231C091A9740CB401F439440954200DDC0E0551B691C1F2900DD4D
:403CC000EAE01F22551B3B1C221CAB40CA40AC40651EAC411343CF401C43391C002573E780217E4D0027C90300247C4B4807E4080443C9089D4250D009030B0B87E78023FC
:403D00001B04012752460B40174071E72A1A9446002A00DCA1E0002854D07048854200D152E78020000403436046382800DD0EE11F2800DD57E162462020801A1E1C864096
:403D4000B1465E46D6404A4632435E4686409046301C421E9041424602436046C3401219A242A441644259180919141C080200D42AE75A4B01359D4200D131E1584B600866
:403D80001940012323401C1C0443CB071C4349081AE71E4300D00AE705E7231C0B433BD080231B030B431B031B0B30E7013F002F6DD15E46A21B9442A4416442C91A091B9B
:403DC000141C60E75846184300D1FDE601267642B4446046002800D0D0E05E463219BFE7002F00D080E0681C4005400D012800DCE8E05A46A21A9442BF41C81A7F42C71BEC
:403E00003E0200D498E05846041BA3459241591A52428F1AE2463AE700230024F7E680231B04012756460B403740E1E6271C283887400024954200DC3EE72949AD1A39403A
:403E4000C2E6201C00F036FA203026E75A461A43531E9A41D2B200270EE7002A00D0DEE0681C4605760D012E00DC90E01B4DA84200D1F5E05E463219A242A44164425918AC
:403E80000919CC07520814434908051C9CE61348854200D0D9E697E62B1C1F3B3E1CDE40331C20296FD03F22551BAF403C43601E84411C430021002586E6381C20381E1CD1
:403EC000C640301C202F60D04022D71BBB405A461A43531E9A4102430027CDE6FF070000FFFF7FFFFFFF0F80002D37D0B64DA84200D18FE080252D047F422943382F00DD83
:403F0000A8E01F2F00DD24E12025ED1B0E1CAE40B046261CFE404246AC401643651EAC413443F9405A46141BA34592415B1A5242991A051CE246A6E6131C3B43141C002BDE
:403F400000D0A4E60027002100250024CDE65A461A43531E9A41D2B2002300E70D1C254358D0FF43002F51D15A46141BA3459241591A5242891A051CE24684E692488542F8
:403F800000D0D1E620E6002790E700239FE7081C2043002D00D0C2E0002800D1EFE05846184300D110E658460219A242A441644259180919141C0A0200D405E6834B0125D5
:403FC000194001E6081C2043002D38D100286FD15946194303D0191C5C46E246F4E500270021002481E6604620381A1CC2406646101C202E00D1AAE04022921B93405A46AA
:404000001A43531E9A4102430023A8E66E4DA84200D073E7191C5C46051CE246D4E5002D22D10D1C254376D0D543002D70D15C445C459241591852428918051C96E600283D
:404040004CD15946194300D14AE6191C5C46E2465D4DB9E50C43611E8C41E4B2002161E7051C0021002440E6574DA84253D05542802216043143382D7BDC1F2D00DD8CE0F1
:404080002022561B0A1CB446B240261CEE403243904662469440661EB44142461443E9405C445C459241CB1852429918051C5DE65846184300D187E55E46A71BBC42924176
:4040C000C81A5242801A060260D55846041BA3459241591A5242891AE24675E55846184333D04807E40804438020C9080003014208D0DD08054205D15946CA085C07144395
:40410000291CE246630FC9001943E4002E4D5BE52D4A9042AFD1191C5C46051C54E5002830D05846184310D080254807E408C9082D0304432942E5D0D8082842E2D15D46F9
:40414000EA085C071443011CDCE71F4D3CE5002355E73D1C203D0E1CEE40351C202F2ED04026F71BB9400C43611E8C412C430021D8E60C43611E8C41E4B2002190E7191CC3
:404180005C4621E5191C5C460F4D1DE5031C3B4300D124E7011C3C1C16E52026764276190A1CF2409046202D0BD04026751BA9400C43611E8C4145462C43002170E7002149
:4041C000D1E70021F4E7C046FF070000FFFF7FFF70B50B1C124C09030E0B5900021C490DDD0F0020A14211DD0E4881420FDC8020400306430C48401A1F280BDD0B4A521A3C
:40420000D640321C5042002D00D1101C70BD084BE818FBE7074BC240C9188E403243F1E7FE0300001D0400003304000013040000FFFFFF7FEDFBFFFFF8B5041E31D0C70F34
:4042400000D04442201C00F035F8184D2D1A0A2819DD0B38844024036D05240B6D0D3A1C0026002000210B0D2403240B1B0523430F4C2D051C402C4364006408D307211C82
:40428000301C1943F8BD061C1536231CB3401E1C0B23181AC44024036D05240B6D0D3A1CDFE70022002500240026DAE71E040000FFFF0F801C2101231B04984201D3000CCB
:4042C00010391B0A984201D3000A08391B09984201D30009043902A2105C40187047C0460403020201010101000000000000000070B50E4B0E4D0024ED1AAD101E1CAC4222
:4043000004D0A300F35898470134F8E700F0F0F9084B094D0024ED1AAD101E1CAC4204D0A300F35898470134F8E770BDFC460000FC460000FC46000004470000031C82188A
:40434000934202D019700133FAE770470000000000300F40000400400F40000401000F405E320F4038330F4003410F4002600F40830F02060308050307440E030F5512017E
:4043800019731A021B0C1C061E01217323042A052D2A2F443130330F3607374039023A803B083F414001464049FF4A074BFF4C404D204EF04F055008580459045A045F0126
:4043C000604061A86240632080418109820E8310851489108E0C90209303944195109606970C9C809D1C9E039F02A10CA311A608A80CAA43AC10B00FB11FB210B420B6C098
:40440000B880BA02BE14C034C101C5ECC70BC813C9FFCAFFCBFFCEF0CF44D00CD401D804D904DA04DB04DF01E6C0EA40EB020180038004010540094A0C200F821021120809
:404440001720180119841AC01B211D401F802102250827A12B802E402F80310A3240372038093A103C013F844108428043804440478149014B045004542055405690574041
:4044800058415925652067048E488F20C099C2DDC447CA91CC2BCED7D01BD60FE24063088F04D84001011001030405060708090A0B0C0E0F101112131415161718191B1CEF
:4044C0001D1E1F2021222325262728292A2B2E2F3031323334350000FB21F93FFB2109407CD91240FB2119407A6A1F407CD92240BBFD2540FB2129403A462C407A6A2F4088
:404500005C4731407CD932409C6B3440BBFD3540DB8F3740FB2139401BB43A403A463C405AD83D407A6A3F404C7E40405C4741406C1042407CD942408CA243409C6B4440AC
:40454000AC344540BBFD4540CBC64640DB8F4740EB584840FB21494083F9A200444E6E00FC291500D1572700DD34F50062DBC0003C999500419043006351FE00BBDEAB0003
:40458000B761C5003A6E2400D24D42004906E00009EA2E001C92D100EB1DFE0029B11C00E83EA700F535820044BB2E009CE98400B4267000417E5F00D69139005383390060
:4045C0009CF439008B5F840028F9BD00F81F3B00DEFF97000F980500112FEF000A5A8B006D1F6D00CF7E360009CB2700464FB7009E663F002DEA5F00BA277500E5EBC700AD
:404600003D7BF100F739070092528A00FB6BEA001FB15F00085D8D00300356007BFC4600F0AB6B0020BCCF0036F49A00E3A91D005E619100081BE60085996500A0145F0068
:404640008D40680080D8FF0027734D0006063100CA561500C9A873007BE260006B8CC0000200000003000000040000000600000000000040FB21F93F000000002D44743E37
:40468000000000809846F83C0000006051CC783B00000080831BF0390000004020257A38000000802282E336000000001DF369352C3800001A3A00001A3A00000C3800007F
:4046C000F6360000F6360000FE3700000C380000F6360000FE370000F63600000C380000F4360000F4360000F4360000223A0000F8B5C046F8BC08BC9E467047CD12000099
:4047000031140000F8B5C046F8BC08BC9E467047A512000028470000D000002018000000200000000000000000000000C0C62D00B80B0000030000000000DC0500000000C6
:404740000000000000000000000000000000000000000000000000000000000000000000000000000000000000000000000000000000000000000000000000000000000039
:404780000010002091470000114B0000114B000008B5024B83F3088800F0D4F90010002010B5214C22688023DB0213432360182000F028FB22681D4B134023601C4A1D4B46
:4047C0001A6021221C4B1A6020221C4B1A6010221B4B1A6011221B4B1A6030231A4A13601A4A13601A4A13601A4A136082221206194B1A60194A1A4B1A601A4A1A4B1A6005
:404800001A4B1B4A13601B4A13601B4A1B4B1A6009201B4900F0DCFA092000F0CDFA0022184B1A6010BDC04600010B40FFFFFBFF0600008004010B4008020240140202405B
:40484000180202401C0202402002024024020240280202402C02024008010B40FE00008000000240FE0000C040000240170000808000024004000240CF000080440002400C
:40488000195000000C020B4038B572B60122474B1A700024464D0CE063001B195B00EB1899881A8858880004104300F0B9F90134E4B2012CF0D93E49081C0C30283100F0BD
:4048C00093F9C02292043B4B1A603B4A3B4B1A60EE2212023A4B1A6090223A4B1A603A4A3A4B1A60A0221205394B1A6099231B04384A13603849394A1160394A1360802125
:404900008903384A1160384A136080225205374B1A60374A374B1A603822374B1A60374B197802220A431A70354A11783C208143142001431170197816220A431A705F22EB
:40494000304B1A60304A314B1A6080229200304B1A600F222F4B1A60CD222F4B1A602F4A2F4B1A6008222F4B1A60C8222E4B1A60C3232E4A1360C42109012D4A1160202150
:404980002C4A11602C4A1360D82212012B4B1A6006232B4A136030212A4A11602A4A1360FFF7FEFE00F052F938BDC0461C700F40705A000000000140080800000400014099
:4049C0000C000140100001400400990000500F4004500F4010500F400000080A14500F4020500F4024500F4030500F4038500F4010FF0F00200105402000004000700F40FB
:404A000001700F400000044000A0D800080004400C00044018000440000104408E910000080104400C0104401801044000020440080204400C020440180204400803044010
:404A400000040440080404401804044010B5064C2378002B07D1054B002B02D0044800E000BF0123237010BD5001002000000000245A000008B5084B002B03D00748084930
:404A800000E000BF07480368002B03D0064B002B00D0984708BDC04600000000245A000054010020D00000200000000010B500F073F9041C00F078F964000019064B1A78C4
:404AC0009200D2B203210840104318700F2318408000024BC05810BD6C010020285A000030B587B062B600F0EBF80024074DFFF7DDFF2418E20F1219521001A8291C00F025
:404B000083FB01A800F03CF9F1E7C046685A0000FEE7C04608B5094B1B681818084A821A802A02DC054A106005E000F039FB0C23036001235B42181C08BDC046D400002056
:404B400098010020F8B50F4F0F4E002412E031687368B568221C02E001C901C30432AA42FAD1F168221C01E010C304328A42FBD11036013F002FEAD100F018FBFFF7B0FFA1
:404B8000FEE7C04601000000885B000038B50023104C114D114808E0032B02D89A00515900E0211C9A00115001332F2BF4D9FFF76BFE00220A4B1A600A4B1B68002B01D137
:404BC000084B1A608023DB05196801220A431A6038BDC046114B00008047000000000020C8000020C0000020F0B500220027FF239C4611E0BB00C658F3B26446A64308E018
:404C000054000C192578AD1964782C700132013BDBB2002BF4D10137062FEBD9F0BDC04608B50A1C002100F0E7FA08BD064B1B68002803D0802212061A4301E05A0052083B
:404C4000014B1A607047C04680031A4008B5094A094B1A60094A0A4B1A600C22094B1A60094A0A4B1A600A4A0A4B1A600120FFF7DDFF08BD0840040080001040104004006B
:404C800088001040C00010404280420000031A40C200420040031A4008B500F067F808BD08B500F01DF808BD08B5044B1968802212060A431A60FFF7EFFF08BD00000640B5
:404CC00008B5064B1B78002B04D1FFF7E9FF0122024B1A70FFF7E8FF08BDC0466D010020114A124B1A600023114A1360012211490A600721104801601048016010490B609D
:404D000010490A601049114A1160114A1360114A1360114A1360114A1360114A1360114A1360114A136070470B000002000006404000064048000640000306400403064035
:404D40001003064044000640070000800002064004020640880E0640C80E0640480F0640080F0640C80F0640880F0640034B1A68F0218A4390210A431A607047100001401B
:404D800038B5051C002402E000F098F90134285D0028F9D138BDC046024B18688006C00F7047C04604010440024B1868C006C00F7047C046040104401F23184001238340A6
:404DC000181C014B1860704700E100E001BE704738B5041C0D1C1F2802D90020FFF7F6FFA400024BE4182068256038BD4000002008B5034B1B7A584300F06EF908BDC046BE
:404E0000D8000020F0B557464E464546E0B4041C00F06CF98046E51E2D2D73D83F4B1B78DBB2A34208D33E4B1B78DBB29A463D4B1B78DBB2994631E03B4B1B78DBB2A3428C
:404E400008D33A4B1B78DBB29A46394B1B78DBB2994623E0374B1B78DBB2A34208D3364B1B78DBB29A46354B1B78DBB2994615E0334B1B78DBB2A34208D3324B1B78DBB2FA
:404E80009A46314B1B78DBB2994607E02F4B1B78DBB29A462E4B1B78DBB299462D4B5E5D2F2E09D92A2C07D919222B4B1A60052000F012F9192703E0274B1F683F231F40EE
:404EC000BE4206D2234B5A5D234B1A60052000F003F91F4AA4182278D2B2204B1A60204B52461A601F4B4A461A600520FFF780FFBE420AD9174B5A5D174B1A60052000F01C
:404F0000EBF802E00020FFF761FF404600F0F2F81CBC90469946A246F0BDC046C0F1FF0FC1F1FF0FC2F1FF0FC3F1FF0FC4F1FF0FC5F1FF0FC6F1FF0FC7F1FF0FC8F1FF0FD3
:404F4000C9F1FF0FCAF1FF0FCBF1FF0FCCF1FF0FCDF1FF0FFC5A00002CFF0B4028FF0B401CFF0B4020FF0B40044B1A68C0231B021A4201D0012000E00020704700010B400F
:404F800008B500F0B3F8044B1968C02212020A431A6000F0AFF808BD00010B4010B500F0A5F8084B1968084A11408024E4012143196019680A40802109020A431A6000F007
:404FC00099F810BD00010B40FF3FFFFF38B5051C00F08CF8041CFFF7C7FF002803D0FFF7DDFF012200E00022084B1D40084B1868084901400D431D601B68012A01D1FFF723
:40500000BFFF201C00F076F838BDC0460404040010020B40FBFBFBFF10B5244B1B685A0715D5234B1B685A070ED5224B9C69042214401F490868A0430860996991439961AE
:40504000DB68002B00D098470420FFF7BFFF174B1B685A0518D5164B1B685A0510D5154B9A698020C0001040114A1168814311609969114A0A409A611B69002B00D09847C6
:405080008020C000FFF7A2FF084B1B685A030CD5074B1B685A0304D5064B5B69002B00D098478020C002FFF791FF10BD10020B40E800002070010020FFFBFFFF04490F22CA
:4050C0000B681340082BFBD0024B18607047C04608020640400206400230800804D0C0460138FDD1C046C046C0467047EFF3108072B6704780F310887047C046C046C04609
:40510000002934D00123002210B488422CD301242407A14204D2814202D209011B01F8E7E400A14204D2814202D249005B00F8E7884201D3401A1A434C08A04202D3001B98
:405140005C0822438C08A04202D3001B9C082243CC08A04202D3001BDC082243002803D01B0901D00909E3E7101C10BC7047002801D00020C04307B4024802A140180290DF
:4051800003BDC046190000000029F0D003B5FFF7B9FF0EBC4243891A1847C0467047C046014B18687047C0464C01002070B50E4B0E4D0024ED1AAD101E1CAC4204D0A30057
:4051C000F35898470134F8E700F0CCFC084B094D0024ED1AAD101E1CAC4204D0A300F35898470134F8E770BD705B0000705B0000705B0000785B0000031C8218934202D08A
:4052000019700133FAE770470EB400B59CB01DAB04CB822202A992008A810A4A02908A604A6101225242CA81074A086110681D9A019300F06BF8029A002313701CB008BCB4
:4052400003B01847FFFFFF7F4C010020F0B58D6885B0071C0C1C03920193AB4245D390228B89D20013423DD062690326564309692068F20F401A96190290021C01980132E4
:4052800012187610964200D2161C381C5A050FD5311C00F02BFB051E13D0029A216900F0BAFAA289184B134080221343A38111E0321C00F06FFB051E0CD1381C216900F034
:4052C000CDFA0C233B60A389402213430120A381404217E0029B2561ED1825606661019DF61AA6600198A84200D2019D2A1C2068039900F099FAA2680020531BA36023684D
:405300005D19256005B0F0BD7FFBFFFFF0B59FB0039005938B890E1C171C19060FD53269002A0CD1402100F0E1FA30603061002803D103990C230B60C9E04023736106AD51
:4053400000236B6120236B763023AB763C1C2378002B03D1E21B029211D003E0252BF9D00134F4E70398311C3A1C029BFFF76EFF013000D1A6E06969029A8B186B612378F8
:40538000002B00D19EE0012252426A606A4600235B3201342B60EB60AB601370AB654E4F2178381C052200F02BFA002807D0C71B2B680120B840184328600134EFE72B6815
:4053C000D90603D56A4620215B3211701A0703D56A462B215B32117022782A2A01D0099B0EE0059A111D12680591002A01DB099204E05242EA60022213432B60013409E040
:405400002278303A092A04D80A214B4301349B18F6E7099323782E2B18D163782A2B09D1059B02341A1D1B680592002B0DDA01235B420AE0013400232278303A092A04D809
:405440000A214B4301349B18F6E70793234F2178381C032200F0D4F9002806D0C71B2B684020B84018432860013421781C480622671C297600F0C4F9002812D0194B002B63
:4054800006D1059B0722073393430833059314E005AB00930398291C321C134B00E000BF07E005AB00930398291C321C0E4B00F091F804900499013104D06A6904995318CB
:4054C0006B6143E7B3895A0601D40B9801E0012040421FB0F0BDC0462E5B0000345B0000385B0000000000004D520000F7B5151C01930A698B68061C0C1C934200DA131C53
:40550000221C2B6043321278002A01D001332B602068800602D52B6802332B60216806270F401FD0231C43331B785A1E9341226892061FD5E11840313020C870211C5A1C6E
:4055400045310978A21840320233D17012E0221C301C019919320123089FB847013011D0009F01370097E0682968009F431A9F42EDDBD7E7221C301C01994332089FB8476C
:40558000013002D10120404223E0206806212B68E26801400025042903D1D51AEB43DB171D40A26823699A4201DDD31AED1800270097009FAF420BDA221C301C01991A32FD
:4055C0000123089FB8470130DCD0009F0137EFE70020FEBDF0B50D1C8BB0433506920590079304950B7E0C1C109A6E2B00D1A7E011D8632B22D009D8002B00D1B0E0582BF6
:4056000000D0C0E045310B707B4D4EE0642B1CD0692B1AD0B7E0732B00D1A5E009D86F2B29D0702B00D0AEE00E68202333430B6036E0752B1FD0782B32D0A4E013680D1C16
:40564000191D423511601B689FE0216813680E0603D5191D11601E6805E04806F9D5191D116000215E5E644B002E3BDA049D2D2276422A7036E0216813680E0603D5191DF8
:4056800011601E6804E04806F9D5191D1E881160594B227E039308276F2A1ED00A271CE0231C78214533554D197011682368081D039510601E0601D50E6802E05806FBD5BD
:4056C0000E88D90702D52022134323601027002E03D1226820239A432260231C002243331A7001E003930A276368A360002B03DB2568042295432560002E02D1049D002B20
:405700000ED0049D301C391CFFF73EFD0398013D435C301C2B70391CFFF7F2FC061EF1D1082F09D12168C90706D5626823699A4202DC013D30232B70049E731B23612AE05B
:40574000086813684969050604D5181D10601B68196005E04606F8D5181D10601B68198000232361049D16E01368191D11601D68281C00F047F963682061984200D923616C
:405780002069606004E0251C42352B7001232361049E00233370079E05980096211C09AA069BFFF7A3FE013002D10120404221E02A1C059806992369079DA8470130F4D01B
:4057C0002668B60705D4099BE068984212DA181C10E00025E0680999431A9D42F3DA221C0598069919320123079EB0470130DCD00135EFE70BB0F0BD3F5B0000505B00007C
:40580000C9B28218904204D003788B4202D00130F8E70020704710B50023934203D0CC5CC4540133F9E710BD70B5814201D300230CE08C18A042FAD28518131C013B0BD3F8
:4058400051426618F65C6918CE54F7E7934203D0CC5CC4540133F9E770BD000030B5002940D004390B68002B00DAC9181E4A1368141C002B02D14B60116033E099420FD26B
:4058800008680A189A4205D113685268C01808604A6000E04B60216024E08A4203D8131C5A68002AF9D11D685C198C420BD10968691858181960904214D11468526809195B
:4058C00019605A600EE08C4202D90C23036009E008680C18944203D114685268001908604A60596030BDC0469001002070B50323CD1C9D430835061C0C2D01D20C2501E0D6
:40590000002D3FDB8D423DD3204B1C681A1C211C002913D00868431B0DD40B2B02D90B60CC181EE08C4202D1636813601AE0486860600C1C16E00C1C4968E9E7144C2068CE
:40594000002803D1301C00F04BF82060301C291C00F046F8431C15D0C41C03239C4384420AD12560201C0B300722231D9043C31A0BD05A42E25008E0211A301C00F030F85E
:405980000130EED10C233360002070BD900100208C010020F8B5061C0C1C151C002904D1111CFFF7A3FF041C18E0002A03D1FFF755FF2C1C12E000F02CF8A8420ED2301CDB
:4059C000291CFFF793FF071E07D0211C2A1CFFF722FF301C211CFFF741FF3C1C201CF8BD38B5074C0023051C081C2360FFF792F8431C03D12368002B00D02B6038BDC04652
:405A0000940100200023C25C0133002AFBD1581E704704390B68181F002B02DAC8581B18181F70470000000000000000FFFFFFFF01000000000000000100000000000000EC
:405A400000000000FFFFFFFFFFFFFFFF0000000000000000010000000000000001000000FFFFFFFF0000000025640D0A0000000000300F40000400400F40000404320F40F5
:405A800005330F400B400F4008410F4004420F400F430F4002600F4038803E4058045F011F808380E404E621EA200F802F805B016F8077407880C220CA80D640DCC0DE20A5
:405AC0004F8083408B019F41A340B080D220E6806E0275107A01DC031C8029042F10670281148301884097209D10B310C604CA03D601E604EA040201110100000304050608
:405B00000708090A0B0C0E0F101112131415161718191B1C1D1E1F2021222325262728292A2B2E2F30313233343500004300232D302B2000686C4C00656667454647003025
:405B4000313233343536373839414243444546003031323334353637383961626364656600000000F8B5C046F8BC08BC9E467047754A00008D4B0000F8B5C046F8BC08BCC9
:405B80009E4670474D4A0000985B0000D0000020800000004800000000000000980100200000E02EC05D00001800000000366E01040404000000000000000000000000005B
:405BC00000000000000000000000000000000000000000002C5B0000000000000000000000000000000000000000000000000000000000000000000000000000000000001E
:405C00000000000000000000000000000000000000000000EC0000200000000000000000000000000000000000000000000000000000000000000000000000000000000058
:405C40000000000000000000000000000000000000000000000000000000000000000000000000000000000000000000000000000000000000000000000000000000000024
:405C800000000000000000000000000000000000000000000000000000000000000000000000000000000000000000000000000000000000000000000000000000000000E4
:405CC00000000000000000000000000000000000000000000000000000000000000000000000000000000000000000000000000000000000000000000000000000000000A4
:405D00000000000000000000000000000000000000000000000000000000000000000000000000000000000000000000000000000000000000000000000000000000000063
:407FC000AC914700008E0000000015000000000000000100000000000000000000000000000000000000000000000000000000000000000000000000000000000000000059
:0200000490303A
:02000000B290BC
:0200000490402A
:20000000FFFFFFFF00000000000000000000000000000000000000000000000000000000E4
:0200000490501A
:0C000000000204C81193110004E5C423A1
:0200000490600A
:0100000001FE
:00000001FF